:1000000012C019C018C017C016C015C014C013C044
:1000100012C011C010C00FC00EC00DC00CC00BC06C
:100020000AC009C008C011241FBECFE5D4E0DEBF5E
:10003000CDBF02D02EC0E4CF8FEF87BB14BA83B3FD
:1000400083B3A3E071E062E049E150E093B383B38E
:10005000282F30E02270307090FD0AC02115310544
:1000600011F418BA0EC02230310559F468BB09C02A
:100070002115310511F478BB04C02230310509F493
:10008000A8BB80E197E2FA013197F1F70197F1F20D
:06009000FACFF894FFCF47
:00000001FF
