:1000000012C019C018C017C016C015C014C013C044
:1000100012C011C010C00FC00EC00DC00CC00BC06C
:100020000AC009C008C011241FBECFE5D4E0DEBF5E
:10003000CDBF02D030C0E4CF1F938FEF87BB14BA7F
:10004000ACE012E168EC70E0BAE083B393B3292F1F
:1000500030E02270307093B3492F50E044705070FC
:1000600080FF17C02115310511F4B8BBEECF223047
:10007000310559F74115510549F418BB80E197E264
:10008000FB013197F1F70197D9F7DFCF44305105E4
:0A009000E1F6A8BBDACFF894FFCF29
:00000001FF
