:1000000012C019C018C017C016C015C014C013C044
:1000100012C011C010C00FC00EC00DC00CC00BC06C
:100020000AC009C008C011241FBECFE5D4E0DEBF5E
:10003000CDBF02D046C0E4CF1F938FEF87BB14BA69
:100040006CE0A8ECB0E012E17AE083B393B3492FFF
:1000500050E04270507093B3292F30E0247030701C
:1000600080FD0AC04115510519F04230510569F76C
:100070002115310541F40AC04115510571F42115CE
:10008000310531F408C024303105F9F668BBDDCF05
:1000900024303105D1F678BBD8CF42305105A9F6CE
:1000A0002115310511F418BBD0CF2430310569F684
:1000B00068BB80E29EE4FD013197F1F70197D9F723
:0600C000C4CFF894FFCF4D
:00000001FF
