:1000000012C019C018C017C016C015C014C013C044
:1000100012C011C010C00FC00EC00DC00CC00BC06C
:100020000AC009C008C011241FBECFE5D4E0DEBF5E
:10003000CDBF02D028C0E4CF8FEF87BB14BA6CE0ED
:10004000E2E17AE083B393B3492F50E042705070FD
:1000500093B3292F30E02470307080FF12C0211537
:10006000310509F478BB4115510529F424303105D7
:1000700049F7E8BBE7CF4230510521F7243031057D
:0A00800009F768BBDFCFF894FFCF4B
:00000001FF
