:100000000C942A000C9447000C9447000C94470071
:100010000C9447000C9447000C9447000C94470044
:100020000C9447000C9447000C9447000C94470034
:100030000C9447000C9447000C9447000C94470024
:100040000C9447000C9447000C9447000C94470014
:100050000C94470011241FBECFE5D4E0DEBFCDBF16
:1000600010E0A0E6B0E0E2E2F6E002C005900D92FA
:10007000A036B107D9F710E0A0E6B0E001C01D92AC
:10008000A036B107E1F70E9449000C940F030C94CD
:1000900000002F923F924F925F926F927F928F92C9
:1000A0009F92AF92BF92CF92DF92EF92FF920F9307
:1000B0001F93DF93CF93CDB7DEB764970FB6F89455
:1000C000DEBF0FBECDBF81B3806F81BBA39A8AB361
:1000D000807E8ABB8BB38F618BBB01E010E021E097
:1000E00030E040E050E0EE24FF24BE016F5F7F4F20
:1000F0008AEF882E912CBAE66B2EB8E17B2EA3E016
:10010000BA2EA9E1B0E0F6EDCF2EF6E0DF2EE4EF57
:100110002E2EE1E03E2E96E0A92E82EE482E84E0BF
:10012000582EC89B03C0C8018F7E02C0C8018061E1
:10013000C99B02C0877F01C08860CA9B02C08B7FB9
:1001400001C08460CB9B02C08D7F01C08260CC9BCC
:1001500003C08C010E7F02C08C01016004301105C8
:1001600071F482B3806A82BB82B38F7A82BBC6018C
:100170000197F1F712BAC2010197F1F748C00C30AC
:10018000110519F00830110549F4959A94988B2DB2
:100190008A95F1F712BA979A96980EC00230110517
:1001A00019F00630110561F4979A96988B2D8A956F
:1001B000F1F712BA959A94988A2D8A95F1F712BAA6
:1001C0000C31110519F008311105F1F480E197E2C5
:1001D000FD013197F1F70197D9F782B3806A82BBAD
:1001E00082B38F7A82BBC6010197F1F712BA979A50
:1001F00096988B2D8A95F1F712BACA99F8CFFB0120
:10020000EE0DFF1D8CE654C00730110521F00330C0
:10021000110509F057C080E197E2FD013197F1F730
:100220000197D9F782B3806A82BB82B38F7A82BB8F
:10023000C3010197F1F712BA80E197E2FD0131970E
:10024000F1F70197D9F7C89B3DC0C99B3BC0CA9B3A
:1002500039C0CB9B37C0CC9B30C082B3806582BB9A
:1002600082B38F7582BB84E699E10197F1F712BAE8
:1002700080E197E2FD013197F1F70197D9F782B359
:10028000806682BB82B38F7682BBC6010197F1F78D
:1002900012BA959A94988B2D8A95F1F712BACA9949
:1002A000F8CFC1010197F1F7FB01EE0DFF1D82E7C9
:1002B00080830894E11CF11C05C0FB01EE0DFF1DBD
:1002C00083E769C00115110509F06AC082B3806A2D
:1002D00082BB82B38F7A82BBC3010197F1F7C89BBF
:1002E00003C0C9018F7E02C0C9018061C99B02C0E1
:1002F000877F01C08860CA9B02C08B7F01C0846079
:10030000CB9B02C08D7F01C08260CC9B06C09C014C
:100310002E7F2115310519F503C09C0121601FC0F6
:1003200012BAAB9A80E29EE429E130E0F9013197FC
:10033000F1F70197D9F7AB98CE010196FC01EE0DCC
:10034000FF1D25E6208340E050E060E070E06C0196
:10035000CE010B96F2E7BF2EE3E7AE2E3DC082B38F
:10036000806582BB82B38F7582BB84E991E101977E
:10037000F1F712BA979A82B38F7882BBC4010197C2
:10038000F1F712BA8B2D8A95F1F7CA99F3CFFB01D9
:10039000EE0DFF1D8CE680830894E11CF11CC1CE9C
:1003A0000F31110509F0BDCE4F5F5F4FCA010197B4
:1003B000029750F482B3806A82BB82B38F7A82BB89
:1003C000C4010197F1F7ADCEFB01EE0DFF1D85E7EE
:1003D00080834F5F5F4FA5CEF601E40FF51F2081AC
:1003E000253739F0FC01E60FF71F20836F5F7F4F41
:1003F0001DC061507040DC01A60FB71F6F5F7F4FBB
:100400002C91233711F4BC9211C02C3679F49A0147
:100410002F5F3F4FF601E20FF31FE081EC3611F43E
:10042000AC9205C0E33711F4BC9201C09A01A90156
:100430004F5F5F4FE416F5067CF68FEF9FEF29E1E3
:1004400030E0F9013197F1F70197D9F720E030E07A
:1004500064EC662E69E0762E5BE0852E912C8C0E86
:100460009D1E4CE4A42E4DE1B42E46ED56E063E013
:1004700094EFC92E91E0D92E89E1E82EF12C76E097
:10048000A2EEB4E0C89B03C0C8018F7E02C0C801C1
:100490008061C99B02C0877F01C08860CA9B02C07F
:1004A0008B7F01C08460CB9B02C08D7F01C08260C6
:1004B000CC9B03C08C010E7F02C08C010160043014
:1004C000110571F482B3806A82BB82B38F7A82BBDA
:1004D000CA010197F1F712BACD010197F1F72AC0CD
:1004E0000C30110519F00830110549F4959A9498CB
:1004F000862F8A95F1F712BA979A96980EC0023015
:10050000110519F00630110561F4979A9698862F17
:100510008A95F1F712BA959A9498872F8A95F1F7F0
:1005200012BA0C31110581F00831110569F007305C
:10053000110551F00330110539F00115110521F0B5
:100540000F31110509F09ECF12BAC3010197F1F7DF
:10055000F401E20FF31FE081EC36D1F480E197E281
:10056000F7013197F1F70197D9F782B3806A82BB1F
:1005700082B38F7A82BBCA010197F1F712BA979AB8
:100580009698862F8A95F1F712BACA99F8CF24C0A7
:10059000E237B1F482B3806A82BB82B38F7A82BBC6
:1005A000CA010197F1F712BA959A9498862F8A9505
:1005B000F1F712BACA99F8CFC6010197F1F70CC04A
:1005C000E33769F482B3806A82BB82B38F7A82BBDD
:1005D000C5010197F1F712BA2F5F3F4F53CF253670
:1005E000310509F04FCF12BA80E090E064960FB663
:1005F000F894DEBF0FBECDBFCF91DF911F910F9159
:10060000FF90EF90DF90CF90BF90AF909F908F9032
:100610007F906F905F904F903F902F900895F89447
:02062000FFCF0A
:00000001FF
